{
  "contractName": "SupplyChain",
  "abi": [
    {
      "inputs": [],
      "payable": true,
      "stateMutability": "payable",
      "type": "constructor"
    },
    {
      "anonymous": false,
      "inputs": [
        {
          "indexed": true,
          "internalType": "address",
          "name": "account",
          "type": "address"
        }
      ],
      "name": "ConsumerAdded",
      "type": "event"
    },
    {
      "anonymous": false,
      "inputs": [
        {
          "indexed": true,
          "internalType": "address",
          "name": "account",
          "type": "address"
        }
      ],
      "name": "ConsumerRemoved",
      "type": "event"
    },
    {
      "anonymous": false,
      "inputs": [
        {
          "indexed": true,
          "internalType": "address",
          "name": "account",
          "type": "address"
        }
      ],
      "name": "DistributorAdded",
      "type": "event"
    },
    {
      "anonymous": false,
      "inputs": [
        {
          "indexed": true,
          "internalType": "address",
          "name": "account",
          "type": "address"
        }
      ],
      "name": "DistributorRemoved",
      "type": "event"
    },
    {
      "anonymous": false,
      "inputs": [
        {
          "indexed": true,
          "internalType": "address",
          "name": "account",
          "type": "address"
        }
      ],
      "name": "FarmerAdded",
      "type": "event"
    },
    {
      "anonymous": false,
      "inputs": [
        {
          "indexed": true,
          "internalType": "address",
          "name": "account",
          "type": "address"
        }
      ],
      "name": "FarmerRemoved",
      "type": "event"
    },
    {
      "anonymous": false,
      "inputs": [
        {
          "indexed": false,
          "internalType": "uint256",
          "name": "upc",
          "type": "uint256"
        }
      ],
      "name": "ForSale",
      "type": "event"
    },
    {
      "anonymous": false,
      "inputs": [
        {
          "indexed": false,
          "internalType": "uint256",
          "name": "upc",
          "type": "uint256"
        }
      ],
      "name": "Harvested",
      "type": "event"
    },
    {
      "anonymous": false,
      "inputs": [
        {
          "indexed": false,
          "internalType": "uint256",
          "name": "upc",
          "type": "uint256"
        }
      ],
      "name": "Packed",
      "type": "event"
    },
    {
      "anonymous": false,
      "inputs": [
        {
          "indexed": false,
          "internalType": "uint256",
          "name": "upc",
          "type": "uint256"
        }
      ],
      "name": "Processed",
      "type": "event"
    },
    {
      "anonymous": false,
      "inputs": [
        {
          "indexed": false,
          "internalType": "uint256",
          "name": "upc",
          "type": "uint256"
        }
      ],
      "name": "Purchased",
      "type": "event"
    },
    {
      "anonymous": false,
      "inputs": [
        {
          "indexed": false,
          "internalType": "uint256",
          "name": "upc",
          "type": "uint256"
        }
      ],
      "name": "Received",
      "type": "event"
    },
    {
      "anonymous": false,
      "inputs": [
        {
          "indexed": true,
          "internalType": "address",
          "name": "account",
          "type": "address"
        }
      ],
      "name": "RetailerAdded",
      "type": "event"
    },
    {
      "anonymous": false,
      "inputs": [
        {
          "indexed": true,
          "internalType": "address",
          "name": "account",
          "type": "address"
        }
      ],
      "name": "RetailerRemoved",
      "type": "event"
    },
    {
      "anonymous": false,
      "inputs": [
        {
          "indexed": false,
          "internalType": "uint256",
          "name": "upc",
          "type": "uint256"
        }
      ],
      "name": "Shipped",
      "type": "event"
    },
    {
      "anonymous": false,
      "inputs": [
        {
          "indexed": false,
          "internalType": "uint256",
          "name": "upc",
          "type": "uint256"
        }
      ],
      "name": "Sold",
      "type": "event"
    },
    {
      "anonymous": false,
      "inputs": [
        {
          "indexed": true,
          "internalType": "address",
          "name": "oldOwner",
          "type": "address"
        },
        {
          "indexed": true,
          "internalType": "address",
          "name": "newOwner",
          "type": "address"
        }
      ],
      "name": "TransferOwnership",
      "type": "event"
    },
    {
      "constant": true,
      "inputs": [],
      "name": "_owner",
      "outputs": [
        {
          "internalType": "address",
          "name": "",
          "type": "address"
        }
      ],
      "payable": false,
      "stateMutability": "view",
      "type": "function"
    },
    {
      "constant": false,
      "inputs": [
        {
          "internalType": "address",
          "name": "account",
          "type": "address"
        }
      ],
      "name": "addConsumer",
      "outputs": [],
      "payable": false,
      "stateMutability": "nonpayable",
      "type": "function"
    },
    {
      "constant": false,
      "inputs": [
        {
          "internalType": "address",
          "name": "account",
          "type": "address"
        }
      ],
      "name": "addDistributor",
      "outputs": [],
      "payable": false,
      "stateMutability": "nonpayable",
      "type": "function"
    },
    {
      "constant": false,
      "inputs": [
        {
          "internalType": "address",
          "name": "account",
          "type": "address"
        }
      ],
      "name": "addFarmer",
      "outputs": [],
      "payable": false,
      "stateMutability": "nonpayable",
      "type": "function"
    },
    {
      "constant": false,
      "inputs": [
        {
          "internalType": "address",
          "name": "account",
          "type": "address"
        }
      ],
      "name": "addRetailer",
      "outputs": [],
      "payable": false,
      "stateMutability": "nonpayable",
      "type": "function"
    },
    {
      "constant": true,
      "inputs": [
        {
          "internalType": "address",
          "name": "account",
          "type": "address"
        }
      ],
      "name": "isConsumer",
      "outputs": [
        {
          "internalType": "bool",
          "name": "",
          "type": "bool"
        }
      ],
      "payable": false,
      "stateMutability": "view",
      "type": "function"
    },
    {
      "constant": true,
      "inputs": [
        {
          "internalType": "address",
          "name": "account",
          "type": "address"
        }
      ],
      "name": "isDistributor",
      "outputs": [
        {
          "internalType": "bool",
          "name": "",
          "type": "bool"
        }
      ],
      "payable": false,
      "stateMutability": "view",
      "type": "function"
    },
    {
      "constant": true,
      "inputs": [
        {
          "internalType": "address",
          "name": "account",
          "type": "address"
        }
      ],
      "name": "isFarmer",
      "outputs": [
        {
          "internalType": "bool",
          "name": "",
          "type": "bool"
        }
      ],
      "payable": false,
      "stateMutability": "view",
      "type": "function"
    },
    {
      "constant": true,
      "inputs": [],
      "name": "isOwner",
      "outputs": [
        {
          "internalType": "bool",
          "name": "",
          "type": "bool"
        }
      ],
      "payable": false,
      "stateMutability": "view",
      "type": "function"
    },
    {
      "constant": true,
      "inputs": [
        {
          "internalType": "address",
          "name": "account",
          "type": "address"
        }
      ],
      "name": "isRetailer",
      "outputs": [
        {
          "internalType": "bool",
          "name": "",
          "type": "bool"
        }
      ],
      "payable": false,
      "stateMutability": "view",
      "type": "function"
    },
    {
      "constant": false,
      "inputs": [],
      "name": "renounceConsumer",
      "outputs": [],
      "payable": false,
      "stateMutability": "nonpayable",
      "type": "function"
    },
    {
      "constant": false,
      "inputs": [],
      "name": "renounceDistributor",
      "outputs": [],
      "payable": false,
      "stateMutability": "nonpayable",
      "type": "function"
    },
    {
      "constant": false,
      "inputs": [],
      "name": "renounceFarmer",
      "outputs": [],
      "payable": false,
      "stateMutability": "nonpayable",
      "type": "function"
    },
    {
      "constant": false,
      "inputs": [],
      "name": "renounceOwnership",
      "outputs": [],
      "payable": false,
      "stateMutability": "nonpayable",
      "type": "function"
    },
    {
      "constant": false,
      "inputs": [],
      "name": "renounceRetailer",
      "outputs": [],
      "payable": false,
      "stateMutability": "nonpayable",
      "type": "function"
    },
    {
      "constant": false,
      "inputs": [
        {
          "internalType": "address",
          "name": "newOwner",
          "type": "address"
        }
      ],
      "name": "transferOwnership",
      "outputs": [],
      "payable": false,
      "stateMutability": "nonpayable",
      "type": "function"
    },
    {
      "constant": false,
      "inputs": [],
      "name": "kill",
      "outputs": [],
      "payable": false,
      "stateMutability": "nonpayable",
      "type": "function"
    },
    {
      "constant": false,
      "inputs": [
        {
          "internalType": "uint256",
          "name": "_upc",
          "type": "uint256"
        },
        {
          "internalType": "address",
          "name": "_originFarmerID",
          "type": "address"
        },
        {
          "internalType": "string",
          "name": "_originFarmName",
          "type": "string"
        },
        {
          "internalType": "string",
          "name": "_originFarmInformation",
          "type": "string"
        },
        {
          "internalType": "string",
          "name": "_originFarmLatitude",
          "type": "string"
        },
        {
          "internalType": "string",
          "name": "_originFarmLongitude",
          "type": "string"
        },
        {
          "internalType": "string",
          "name": "_productNotes",
          "type": "string"
        }
      ],
      "name": "harvestItem",
      "outputs": [],
      "payable": false,
      "stateMutability": "nonpayable",
      "type": "function"
    },
    {
      "constant": false,
      "inputs": [
        {
          "internalType": "uint256",
          "name": "_upc",
          "type": "uint256"
        }
      ],
      "name": "processItem",
      "outputs": [],
      "payable": false,
      "stateMutability": "nonpayable",
      "type": "function"
    },
    {
      "constant": false,
      "inputs": [
        {
          "internalType": "uint256",
          "name": "_upc",
          "type": "uint256"
        }
      ],
      "name": "packItem",
      "outputs": [],
      "payable": false,
      "stateMutability": "nonpayable",
      "type": "function"
    },
    {
      "constant": false,
      "inputs": [
        {
          "internalType": "uint256",
          "name": "_upc",
          "type": "uint256"
        },
        {
          "internalType": "uint256",
          "name": "_price",
          "type": "uint256"
        }
      ],
      "name": "sellItem",
      "outputs": [],
      "payable": false,
      "stateMutability": "nonpayable",
      "type": "function"
    },
    {
      "constant": false,
      "inputs": [
        {
          "internalType": "uint256",
          "name": "_upc",
          "type": "uint256"
        }
      ],
      "name": "buyItem",
      "outputs": [],
      "payable": true,
      "stateMutability": "payable",
      "type": "function"
    },
    {
      "constant": false,
      "inputs": [
        {
          "internalType": "uint256",
          "name": "_upc",
          "type": "uint256"
        }
      ],
      "name": "shipItem",
      "outputs": [],
      "payable": false,
      "stateMutability": "nonpayable",
      "type": "function"
    },
    {
      "constant": false,
      "inputs": [
        {
          "internalType": "uint256",
          "name": "_upc",
          "type": "uint256"
        }
      ],
      "name": "receiveItem",
      "outputs": [],
      "payable": false,
      "stateMutability": "nonpayable",
      "type": "function"
    },
    {
      "constant": false,
      "inputs": [
        {
          "internalType": "uint256",
          "name": "_upc",
          "type": "uint256"
        }
      ],
      "name": "purchaseItem",
      "outputs": [],
      "payable": false,
      "stateMutability": "nonpayable",
      "type": "function"
    },
    {
      "constant": true,
      "inputs": [
        {
          "internalType": "uint256",
          "name": "_upc",
          "type": "uint256"
        }
      ],
      "name": "fetchItemBufferOne",
      "outputs": [
        {
          "internalType": "uint256",
          "name": "itemSKU",
          "type": "uint256"
        },
        {
          "internalType": "uint256",
          "name": "itemUPC",
          "type": "uint256"
        },
        {
          "internalType": "address",
          "name": "ownerID",
          "type": "address"
        },
        {
          "internalType": "address",
          "name": "originFarmerID",
          "type": "address"
        },
        {
          "internalType": "string",
          "name": "originFarmName",
          "type": "string"
        },
        {
          "internalType": "string",
          "name": "originFarmInformation",
          "type": "string"
        },
        {
          "internalType": "string",
          "name": "originFarmLatitude",
          "type": "string"
        },
        {
          "internalType": "string",
          "name": "originFarmLongitude",
          "type": "string"
        }
      ],
      "payable": false,
      "stateMutability": "view",
      "type": "function"
    },
    {
      "constant": true,
      "inputs": [
        {
          "internalType": "uint256",
          "name": "_upc",
          "type": "uint256"
        }
      ],
      "name": "fetchItemBufferTwo",
      "outputs": [
        {
          "internalType": "uint256",
          "name": "itemSKU",
          "type": "uint256"
        },
        {
          "internalType": "uint256",
          "name": "itemUPC",
          "type": "uint256"
        },
        {
          "internalType": "uint256",
          "name": "productID",
          "type": "uint256"
        },
        {
          "internalType": "string",
          "name": "productNotes",
          "type": "string"
        },
        {
          "internalType": "uint256",
          "name": "productPrice",
          "type": "uint256"
        },
        {
          "internalType": "uint256",
          "name": "itemState",
          "type": "uint256"
        },
        {
          "internalType": "address",
          "name": "distributorID",
          "type": "address"
        },
        {
          "internalType": "address",
          "name": "retailerID",
          "type": "address"
        },
        {
          "internalType": "address",
          "name": "consumerID",
          "type": "address"
        }
      ],
      "payable": false,
      "stateMutability": "view",
      "type": "function"
    }
  ],
  "bytecode": "0x6080604052336000806101000a81548173ffffffffffffffffffffffffffffffffffffffff021916908373ffffffffffffffffffffffffffffffffffffffff1602179055506000809054906101000a900473ffffffffffffffffffffffffffffffffffffffff1673ffffffffffffffffffffffffffffffffffffffff16600073ffffffffffffffffffffffffffffffffffffffff167f5c486528ec3e3f0ea91181cff8116f02bfa350e03b8b6f12e00765adbb5af85c60405160405180910390a3620000d1336200015b60201b60201c565b620000e233620001bc60201b60201c565b620000f3336200021d60201b60201c565b62000104336200027e60201b60201c565b33600560006101000a81548173ffffffffffffffffffffffffffffffffffffffff021916908373ffffffffffffffffffffffffffffffffffffffff1602179055506001600781905550600160068190555062000428565b62000176816001620002df60201b6200320f1790919060201c565b8073ffffffffffffffffffffffffffffffffffffffff167f28b26e7a3d20aedbc5f8f2ebf7da671c0491723a2b78f47a097b0e46dee0714260405160405180910390a250565b620001d7816002620002df60201b6200320f1790919060201c565b8073ffffffffffffffffffffffffffffffffffffffff167fddbf200aa634dc3fb81cfd68583dd1040d1c751d335e1d86b631bde3e977fea860405160405180910390a250565b62000238816003620002df60201b6200320f1790919060201c565b8073ffffffffffffffffffffffffffffffffffffffff167f2e0ded4123377a3c2bc9a26f1717655a129e2f20752924d42e730ec89c83dbd060405160405180910390a250565b62000299816004620002df60201b6200320f1790919060201c565b8073ffffffffffffffffffffffffffffffffffffffff167f71ae26cad02663e3d92efd6ec56031a80d74a20c0ab4183faa8bf262261c9baa60405160405180910390a250565b600073ffffffffffffffffffffffffffffffffffffffff168173ffffffffffffffffffffffffffffffffffffffff1614156200031a57600080fd5b6200032c82826200039560201b60201c565b156200033757600080fd5b60018260000160008373ffffffffffffffffffffffffffffffffffffffff1673ffffffffffffffffffffffffffffffffffffffff16815260200190815260200160002060006101000a81548160ff0219169083151502179055505050565b60008073ffffffffffffffffffffffffffffffffffffffff168273ffffffffffffffffffffffffffffffffffffffff161415620003d157600080fd5b8260000160008373ffffffffffffffffffffffffffffffffffffffff1673ffffffffffffffffffffffffffffffffffffffff16815260200190815260200160002060009054906101000a900460ff16905092915050565b6135e480620004386000396000f3fe60806040526004361061019c5760003560e01c8063834ff739116100ec578063bdd8a6a81161008a578063e7fb74c711610064578063e7fb74c714610db9578063f2fde38b14610de7578063f30fc48014610e38578063f61c899a14610e735761019c565b8063bdd8a6a814610a19578063d38ea5bf14610d67578063db0e6a2f14610da25761019c565b80638f32d59b116100c65780638f32d59b146108ef578063a26be9991461091e578063b2bdfa7b14610959578063b9429069146109b05761019c565b8063834ff739146107cc5780638ec4f505146108355780638f0c86fa146108865761019c565b8063644241db116101595780637250e224116101335780637250e224146104a757806377c45913146104f857806380c3f96d1461076457806380fc0ce4146107b55761019c565b8063644241db1461030957806366225ff914610320578063715018a6146104905761019c565b8063112940f9146101a15780632d923561146101f257806341c0e1b51461023757806349dae7661461024e5780635da09b881461028957806361e6982d146102f2575b600080fd5b3480156101ad57600080fd5b506101f0600480360360208110156101c457600080fd5b81019080803573ffffffffffffffffffffffffffffffffffffffff169060200190929190505050610eae565b005b3480156101fe57600080fd5b506102356004803603604081101561021557600080fd5b810190808035906020019092919080359060200190929190505050610f18565b005b34801561024357600080fd5b5061024c61118e565b005b34801561025a57600080fd5b506102876004803603602081101561027157600080fd5b8101908080359060200190929190505050611221565b005b34801561029557600080fd5b506102d8600480360360208110156102ac57600080fd5b81019080803573ffffffffffffffffffffffffffffffffffffffff16906020019092919050505061147b565b604051808215151515815260200191505060405180910390f35b3480156102fe57600080fd5b50610307611498565b005b34801561031557600080fd5b5061031e6114a3565b005b34801561032c57600080fd5b506103596004803603602081101561034357600080fd5b81019080803590602001909291905050506114ae565b604051808a8152602001898152602001888152602001806020018781526020018681526020018573ffffffffffffffffffffffffffffffffffffffff1673ffffffffffffffffffffffffffffffffffffffff1681526020018473ffffffffffffffffffffffffffffffffffffffff1673ffffffffffffffffffffffffffffffffffffffff1681526020018373ffffffffffffffffffffffffffffffffffffffff1673ffffffffffffffffffffffffffffffffffffffff168152602001828103825288818151815260200191508051906020019080838360005b8381101561044d578082015181840152602081019050610432565b50505050905090810190601f16801561047a5780820380516001836020036101000a031916815260200191505b509a505050505050505050505060405180910390f35b34801561049c57600080fd5b506104a56116bb565b005b3480156104b357600080fd5b506104f6600480360360208110156104ca57600080fd5b81019080803573ffffffffffffffffffffffffffffffffffffffff1690602001909291905050506117d7565b005b34801561050457600080fd5b506105316004803603602081101561051b57600080fd5b8101908080359060200190929190505050611841565b604051808981526020018881526020018773ffffffffffffffffffffffffffffffffffffffff1673ffffffffffffffffffffffffffffffffffffffff1681526020018673ffffffffffffffffffffffffffffffffffffffff1673ffffffffffffffffffffffffffffffffffffffff16815260200180602001806020018060200180602001858103855289818151815260200191508051906020019080838360005b838110156105ed5780820151818401526020810190506105d2565b50505050905090810190601f16801561061a5780820380516001836020036101000a031916815260200191505b50858103845288818151815260200191508051906020019080838360005b83811015610653578082015181840152602081019050610638565b50505050905090810190601f1680156106805780820380516001836020036101000a031916815260200191505b50858103835287818151815260200191508051906020019080838360005b838110156106b957808201518184015260208101905061069e565b50505050905090810190601f1680156106e65780820380516001836020036101000a031916815260200191505b50858103825286818151815260200191508051906020019080838360005b8381101561071f578082015181840152602081019050610704565b50505050905090810190601f16801561074c5780820380516001836020036101000a031916815260200191505b509c5050505050505050505050505060405180910390f35b34801561077057600080fd5b506107b36004803603602081101561078757600080fd5b81019080803573ffffffffffffffffffffffffffffffffffffffff169060200190929190505050611bc0565b005b3480156107c157600080fd5b506107ca611c47565b005b3480156107d857600080fd5b5061081b600480360360208110156107ef57600080fd5b81019080803573ffffffffffffffffffffffffffffffffffffffff169060200190929190505050611c52565b604051808215151515815260200191505060405180910390f35b34801561084157600080fd5b506108846004803603602081101561085857600080fd5b81019080803573ffffffffffffffffffffffffffffffffffffffff169060200190929190505050611c6f565b005b34801561089257600080fd5b506108d5600480360360208110156108a957600080fd5b81019080803573ffffffffffffffffffffffffffffffffffffffff169060200190929190505050611cf6565b604051808215151515815260200191505060405180910390f35b3480156108fb57600080fd5b50610904611d13565b604051808215151515815260200191505060405180910390f35b34801561092a57600080fd5b506109576004803603602081101561094157600080fd5b8101908080359060200190929190505050611d6a565b005b34801561096557600080fd5b5061096e611f95565b604051808273ffffffffffffffffffffffffffffffffffffffff1673ffffffffffffffffffffffffffffffffffffffff16815260200191505060405180910390f35b3480156109bc57600080fd5b506109ff600480360360208110156109d357600080fd5b81019080803573ffffffffffffffffffffffffffffffffffffffff169060200190929190505050611fbe565b604051808215151515815260200191505060405180910390f35b348015610a2557600080fd5b50610d65600480360360e0811015610a3c57600080fd5b8101908080359060200190929190803573ffffffffffffffffffffffffffffffffffffffff16906020019092919080359060200190640100000000811115610a8357600080fd5b820183602082011115610a9557600080fd5b80359060200191846001830284011164010000000083111715610ab757600080fd5b91908080601f016020809104026020016040519081016040528093929190818152602001838380828437600081840152601f19601f82011690508083019250505050505050919291929080359060200190640100000000811115610b1a57600080fd5b820183602082011115610b2c57600080fd5b80359060200191846001830284011164010000000083111715610b4e57600080fd5b91908080601f016020809104026020016040519081016040528093929190818152602001838380828437600081840152601f19601f82011690508083019250505050505050919291929080359060200190640100000000811115610bb157600080fd5b820183602082011115610bc357600080fd5b80359060200191846001830284011164010000000083111715610be557600080fd5b91908080601f016020809104026020016040519081016040528093929190818152602001838380828437600081840152601f19601f82011690508083019250505050505050919291929080359060200190640100000000811115610c4857600080fd5b820183602082011115610c5a57600080fd5b80359060200191846001830284011164010000000083111715610c7c57600080fd5b91908080601f016020809104026020016040519081016040528093929190818152602001838380828437600081840152601f19601f82011690508083019250505050505050919291929080359060200190640100000000811115610cdf57600080fd5b820183602082011115610cf157600080fd5b80359060200191846001830284011164010000000083111715610d1357600080fd5b91908080601f016020809104026020016040519081016040528093929190818152602001838380828437600081840152601f19601f820116905080830192505050505050509192919290505050611fdb565b005b348015610d7357600080fd5b50610da060048036036020811015610d8a57600080fd5b81019080803590602001909291905050506122b4565b005b348015610dae57600080fd5b50610db76124c2565b005b610de560048036036020811015610dcf57600080fd5b81019080803590602001909291905050506124cd565b005b348015610df357600080fd5b50610e3660048036036020811015610e0a57600080fd5b81019080803573ffffffffffffffffffffffffffffffffffffffff16906020019092919050505061284c565b005b348015610e4457600080fd5b50610e7160048036036020811015610e5b57600080fd5b81019080803590602001909291905050506128b5565b005b348015610e7f57600080fd5b50610eac60048036036020811015610e9657600080fd5b8101908080359060200190929190505050612b0f565b005b610eb733611c52565b610f0c576040517f08c379a00000000000000000000000000000000000000000000000000000000081526004018080602001828103825260228152602001806134316022913960400191505060405180910390fd5b610f1581612d69565b50565b8160026007811115610f2657fe5b60086000838152602001908152602001600020600b0160009054906101000a900460ff166007811115610f5557fe5b14610fab576040517f08c379a000000000000000000000000000000000000000000000000000000000815260040180806020018281038252602281526020018061358e6022913960400191505060405180910390fd5b6008600084815260200190815260200160002060020160009054906101000a900473ffffffffffffffffffffffffffffffffffffffff168073ffffffffffffffffffffffffffffffffffffffff163373ffffffffffffffffffffffffffffffffffffffff1614611083576040517f08c379a000000000000000000000000000000000000000000000000000000000815260040180806020018281038252601c8152602001807f436f756c64206e6f7420766572696679207468652063616c6c65722e0000000081525060200191505060405180910390fd5b61108c33611fbe565b6110fe576040517f08c379a00000000000000000000000000000000000000000000000000000000081526004018080602001828103825260208152602001807f596f7520646f206e6f74206861766520746865206661726d657220726f6c652e81525060200191505060405180910390fd5b8260086000868152602001908152602001600020600a0181905550600360086000868152602001908152602001600020600b0160006101000a81548160ff0219169083600781111561114c57fe5b02179055507fa96ae0fc3224ebd79eebfe54bd130cc9cb94416cddd1f2386115e00b72532468846040518082815260200191505060405180910390a150505050565b600560009054906101000a900473ffffffffffffffffffffffffffffffffffffffff1673ffffffffffffffffffffffffffffffffffffffff163373ffffffffffffffffffffffffffffffffffffffff16141561121f57600560009054906101000a900473ffffffffffffffffffffffffffffffffffffffff1673ffffffffffffffffffffffffffffffffffffffff16ff5b565b806000600781111561122f57fe5b60086000838152602001908152602001600020600b0160009054906101000a900460ff16600781111561125e57fe5b146112b4576040517f08c379a00000000000000000000000000000000000000000000000000000000081526004018080602001828103825260258152602001806134786025913960400191505060405180910390fd5b6008600083815260200190815260200160002060020160009054906101000a900473ffffffffffffffffffffffffffffffffffffffff168073ffffffffffffffffffffffffffffffffffffffff163373ffffffffffffffffffffffffffffffffffffffff161461138c576040517f08c379a000000000000000000000000000000000000000000000000000000000815260040180806020018281038252601c8152602001807f436f756c64206e6f7420766572696679207468652063616c6c65722e0000000081525060200191505060405180910390fd5b61139533611fbe565b611407576040517f08c379a00000000000000000000000000000000000000000000000000000000081526004018080602001828103825260208152602001807f596f7520646f206e6f74206861766520746865206661726d657220726f6c652e81525060200191505060405180910390fd5b600160086000858152602001908152602001600020600b0160006101000a81548160ff0219169083600781111561143a57fe5b02179055507f5afe3b1bf87069693c075da5c22a98d63d1aef98a30dbbe538d0781a98b77ee5836040518082815260200191505060405180910390a1505050565b6000611491826004612dc390919063ffffffff16565b9050919050565b6114a133612e55565b565b6114ac33612eaf565b565b600080600060606000806000806000600860008b8152602001908152602001600020600001549850600860008b8152602001908152602001600020600101549750600860008b8152602001908152602001600020600801549650600860008b81526020019081526020016000206009018054600181600116156101000203166002900480601f0160208091040260200160405190810160405280929190818152602001828054600181600116156101000203166002900480156115b25780601f10611587576101008083540402835291602001916115b2565b820191906000526020600020905b81548152906001019060200180831161159557829003601f168201915b50505050509550600860008b8152602001908152602001600020600a01549450600860008b8152602001908152602001600020600b0160009054906101000a900460ff16600781111561160157fe5b9350600860008b8152602001908152602001600020600b0160019054906101000a900473ffffffffffffffffffffffffffffffffffffffff169250600860008b8152602001908152602001600020600c0160009054906101000a900473ffffffffffffffffffffffffffffffffffffffff169150600860008b8152602001908152602001600020600d0160009054906101000a900473ffffffffffffffffffffffffffffffffffffffff1690509193959799909294969850565b6116c3611d13565b611718576040517f08c379a000000000000000000000000000000000000000000000000000000000815260040180806020018281038252602f81526020018061355f602f913960400191505060405180910390fd5b600073ffffffffffffffffffffffffffffffffffffffff166000809054906101000a900473ffffffffffffffffffffffffffffffffffffffff1673ffffffffffffffffffffffffffffffffffffffff167f5c486528ec3e3f0ea91181cff8116f02bfa350e03b8b6f12e00765adbb5af85c60405160405180910390a360008060006101000a81548173ffffffffffffffffffffffffffffffffffffffff021916908373ffffffffffffffffffffffffffffffffffffffff160217905550565b6117e033611cf6565b611835576040517f08c379a000000000000000000000000000000000000000000000000000000000815260040180806020018281038252602581526020018061340c6025913960400191505060405180910390fd5b61183e81612f09565b50565b600080600080606080606080600860008a8152602001908152602001600020600001549750600860008a8152602001908152602001600020600101549650600860008a815260200190815260200160002060020160009054906101000a900473ffffffffffffffffffffffffffffffffffffffff169550600860008a815260200190815260200160002060030160009054906101000a900473ffffffffffffffffffffffffffffffffffffffff169450600860008a81526020019081526020016000206004018054600181600116156101000203166002900480601f01602080910402602001604051908101604052809291908181526020018280546001816001161561010002031660029004801561199b5780601f106119705761010080835404028352916020019161199b565b820191906000526020600020905b81548152906001019060200180831161197e57829003601f168201915b50505050509350600860008a81526020019081526020016000206005018054600181600116156101000203166002900480601f016020809104026020016040519081016040528092919081815260200182805460018160011615610100020316600290048015611a4c5780601f10611a2157610100808354040283529160200191611a4c565b820191906000526020600020905b815481529060010190602001808311611a2f57829003601f168201915b50505050509250600860008a81526020019081526020016000206006018054600181600116156101000203166002900480601f016020809104026020016040519081016040528092919081815260200182805460018160011615610100020316600290048015611afd5780601f10611ad257610100808354040283529160200191611afd565b820191906000526020600020905b815481529060010190602001808311611ae057829003601f168201915b50505050509150600860008a81526020019081526020016000206007018054600181600116156101000203166002900480601f016020809104026020016040519081016040528092919081815260200182805460018160011615610100020316600290048015611bae5780601f10611b8357610100808354040283529160200191611bae565b820191906000526020600020905b815481529060010190602001808311611b9157829003601f168201915b50505050509050919395975091939597565b611bc933611fbe565b611c3b576040517f08c379a00000000000000000000000000000000000000000000000000000000081526004018080602001828103825260208152602001807f596f7520646f206e6f74206861766520746865206661726d657220726f6c652e81525060200191505060405180910390fd5b611c4481612f63565b50565b611c5033612fbd565b565b6000611c68826001612dc390919063ffffffff16565b9050919050565b611c783361147b565b611cea576040517f08c379a00000000000000000000000000000000000000000000000000000000081526004018080602001828103825260208152602001807f596f7520646f206e6f74206861766520746865206661726d657220726f6c652e81525060200191505060405180910390fd5b611cf381613017565b50565b6000611d0c826002612dc390919063ffffffff16565b9050919050565b60008060009054906101000a900473ffffffffffffffffffffffffffffffffffffffff1673ffffffffffffffffffffffffffffffffffffffff163373ffffffffffffffffffffffffffffffffffffffff1614905090565b8060056007811115611d7857fe5b60086000838152602001908152602001600020600b0160009054906101000a900460ff166007811115611da757fe5b14611dfd576040517f08c379a00000000000000000000000000000000000000000000000000000000081526004018080602001828103825260238152602001806134c16023913960400191505060405180910390fd5b611e063361147b565b611e78576040517f08c379a00000000000000000000000000000000000000000000000000000000081526004018080602001828103825260208152602001807f596f7520646f206e6f74206861766520746865206661726d657220726f6c652e81525060200191505060405180910390fd5b336008600084815260200190815260200160002060020160006101000a81548173ffffffffffffffffffffffffffffffffffffffff021916908373ffffffffffffffffffffffffffffffffffffffff1602179055503360086000848152602001908152602001600020600c0160006101000a81548173ffffffffffffffffffffffffffffffffffffffff021916908373ffffffffffffffffffffffffffffffffffffffff160217905550600660086000848152602001908152602001600020600b0160006101000a81548160ff02191690836007811115611f5557fe5b02179055507fa8142743f8f70a4c26f3691cf4ed59718381fb2f18070ec52be1f1022d855557826040518082815260200191505060405180910390a15050565b60008060009054906101000a900473ffffffffffffffffffffffffffffffffffffffff16905090565b6000611fd4826003612dc390919063ffffffff16565b9050919050565b611fe433611fbe565b612056576040517f08c379a00000000000000000000000000000000000000000000000000000000081526004018080602001828103825260208152602001807f596f7520646f206e6f74206861766520746865206661726d657220726f6c652e81525060200191505060405180910390fd5b60075460086000898152602001908152602001600020600001819055506006546008600089815260200190815260200160002060010181905550856008600089815260200190815260200160002060020160006101000a81548173ffffffffffffffffffffffffffffffffffffffff021916908373ffffffffffffffffffffffffffffffffffffffff160217905550856008600089815260200190815260200160002060030160006101000a81548173ffffffffffffffffffffffffffffffffffffffff021916908373ffffffffffffffffffffffffffffffffffffffff16021790555084600860008981526020019081526020016000206004019080519060200190612164929190613366565b508360086000898152602001908152602001600020600501908051906020019061218f929190613366565b50826008600089815260200190815260200160002060060190805190602001906121ba929190613366565b50816008600089815260200190815260200160002060070190805190602001906121e5929190613366565b50600754870160086000898152602001908152602001600020600801819055508060086000898152602001908152602001600020600901908051906020019061222f929190613366565b50600060086000898152602001908152602001600020600b0160006101000a81548160ff0219169083600781111561226357fe5b02179055506001600754016007819055507f8e55ccfc9778ff8eba1646d765cf1982537ce0f9257054a17b48aad745250183876040518082815260200191505060405180910390a150505050505050565b80600660078111156122c257fe5b60086000838152602001908152602001600020600b0160009054906101000a900460ff1660078111156122f157fe5b14612347576040517f08c379a000000000000000000000000000000000000000000000000000000000815260040180806020018281038252602481526020018061353b6024913960400191505060405180910390fd5b61235033611c52565b6123a5576040517f08c379a00000000000000000000000000000000000000000000000000000000081526004018080602001828103825260228152602001806134316022913960400191505060405180910390fd5b336008600084815260200190815260200160002060020160006101000a81548173ffffffffffffffffffffffffffffffffffffffff021916908373ffffffffffffffffffffffffffffffffffffffff1602179055503360086000848152602001908152602001600020600d0160006101000a81548173ffffffffffffffffffffffffffffffffffffffff021916908373ffffffffffffffffffffffffffffffffffffffff160217905550600760086000848152602001908152602001600020600b0160006101000a81548160ff0219169083600781111561248257fe5b02179055507f653d56639fee6b566a5c804764e9689de38645f0b733df89a36a1b7b42173dd8826040518082815260200191505060405180910390a15050565b6124cb33613071565b565b80600360078111156124db57fe5b60086000838152602001908152602001600020600b0160009054906101000a900460ff16600781111561250a57fe5b14612560576040517f08c379a000000000000000000000000000000000000000000000000000000000815260040180806020018281038252602481526020018061349d6024913960400191505060405180910390fd5b60086000838152602001908152602001600020600a0154803410156125d0576040517f08c379a00000000000000000000000000000000000000000000000000000000081526004018080602001828103825260358152602001806135066035913960400191505060405180910390fd5b826125da33611cf6565b61262f576040517f08c379a000000000000000000000000000000000000000000000000000000000815260040180806020018281038252602581526020018061340c6025913960400191505060405180910390fd5b336008600086815260200190815260200160002060020160006101000a81548173ffffffffffffffffffffffffffffffffffffffff021916908373ffffffffffffffffffffffffffffffffffffffff1602179055503360086000868152602001908152602001600020600b0160016101000a81548173ffffffffffffffffffffffffffffffffffffffff021916908373ffffffffffffffffffffffffffffffffffffffff160217905550600460086000868152602001908152602001600020600b0160006101000a81548160ff0219169083600781111561270c57fe5b02179055503373ffffffffffffffffffffffffffffffffffffffff166108fc60086000878152602001908152602001600020600a01549081150290604051600060405180830381858888f1935050505015801561276d573d6000803e3d6000fd5b507f92f64ca637d023f354075a4be751b169c1a8a9ccb6d33cdd0cb3520543995727846040518082815260200191505060405180910390a1600060086000838152602001908152602001600020600a015490506000813403905060086000848152602001908152602001600020600d0160009054906101000a900473ffffffffffffffffffffffffffffffffffffffff1673ffffffffffffffffffffffffffffffffffffffff166108fc829081150290604051600060405180830381858888f19350505050158015612843573d6000803e3d6000fd5b50505050505050565b612854611d13565b6128a9576040517f08c379a000000000000000000000000000000000000000000000000000000000815260040180806020018281038252602f81526020018061355f602f913960400191505060405180910390fd5b6128b2816130cb565b50565b80600160078111156128c357fe5b60086000838152602001908152602001600020600b0160009054906101000a900460ff1660078111156128f257fe5b14612948576040517f08c379a00000000000000000000000000000000000000000000000000000000081526004018080602001828103825260258152602001806134536025913960400191505060405180910390fd5b6008600083815260200190815260200160002060020160009054906101000a900473ffffffffffffffffffffffffffffffffffffffff168073ffffffffffffffffffffffffffffffffffffffff163373ffffffffffffffffffffffffffffffffffffffff1614612a20576040517f08c379a000000000000000000000000000000000000000000000000000000000815260040180806020018281038252601c8152602001807f436f756c64206e6f7420766572696679207468652063616c6c65722e0000000081525060200191505060405180910390fd5b612a2933611fbe565b612a9b576040517f08c379a00000000000000000000000000000000000000000000000000000000081526004018080602001828103825260208152602001807f596f7520646f206e6f74206861766520746865206661726d657220726f6c652e81525060200191505060405180910390fd5b600260086000858152602001908152602001600020600b0160006101000a81548160ff02191690836007811115612ace57fe5b02179055507f9b3b66e2380b690bae22c73ef1428fb0c91e72fe14a4b6defa13035214187aff836040518082815260200191505060405180910390a1505050565b8060046007811115612b1d57fe5b60086000838152602001908152602001600020600b0160009054906101000a900460ff166007811115612b4c57fe5b14612bbf576040517f08c379a00000000000000000000000000000000000000000000000000000000081526004018080602001828103825260208152602001807f4974656d206973206e6f7420696e207468652027536f6c64272053746174652e81525060200191505060405180910390fd5b6008600083815260200190815260200160002060020160009054906101000a900473ffffffffffffffffffffffffffffffffffffffff168073ffffffffffffffffffffffffffffffffffffffff163373ffffffffffffffffffffffffffffffffffffffff1614612c97576040517f08c379a000000000000000000000000000000000000000000000000000000000815260040180806020018281038252601c8152602001807f436f756c64206e6f7420766572696679207468652063616c6c65722e0000000081525060200191505060405180910390fd5b612ca033611cf6565b612cf5576040517f08c379a000000000000000000000000000000000000000000000000000000000815260040180806020018281038252602581526020018061340c6025913960400191505060405180910390fd5b600560086000858152602001908152602001600020600b0160006101000a81548160ff02191690836007811115612d2857fe5b02179055507ff00b9a5725b80c54016f42114f6ed7792d22eecb116011c4afac29c57bef6c95836040518082815260200191505060405180910390a1505050565b612d7d81600161320f90919063ffffffff16565b8073ffffffffffffffffffffffffffffffffffffffff167f28b26e7a3d20aedbc5f8f2ebf7da671c0491723a2b78f47a097b0e46dee0714260405160405180910390a250565b60008073ffffffffffffffffffffffffffffffffffffffff168273ffffffffffffffffffffffffffffffffffffffff161415612dfe57600080fd5b8260000160008373ffffffffffffffffffffffffffffffffffffffff1673ffffffffffffffffffffffffffffffffffffffff16815260200190815260200160002060009054906101000a900460ff16905092915050565b612e698160016132bb90919063ffffffff16565b8073ffffffffffffffffffffffffffffffffffffffff167fe3f5ed5f263f1f01764a96edfc7d025f511ec5f7d180e8816908b78bcf74f09860405160405180910390a250565b612ec38160026132bb90919063ffffffff16565b8073ffffffffffffffffffffffffffffffffffffffff167f126174f6cf49c81cdb4a9214c6b8f037bef55b4ec31e4fc776cea2a1c8a88d5960405160405180910390a250565b612f1d81600261320f90919063ffffffff16565b8073ffffffffffffffffffffffffffffffffffffffff167fddbf200aa634dc3fb81cfd68583dd1040d1c751d335e1d86b631bde3e977fea860405160405180910390a250565b612f7781600361320f90919063ffffffff16565b8073ffffffffffffffffffffffffffffffffffffffff167f2e0ded4123377a3c2bc9a26f1717655a129e2f20752924d42e730ec89c83dbd060405160405180910390a250565b612fd18160036132bb90919063ffffffff16565b8073ffffffffffffffffffffffffffffffffffffffff167fa5e0f060af304ab17dd418c7927e3da3ae7868189bf387aee09ab179ccc572f260405160405180910390a250565b61302b81600461320f90919063ffffffff16565b8073ffffffffffffffffffffffffffffffffffffffff167f71ae26cad02663e3d92efd6ec56031a80d74a20c0ab4183faa8bf262261c9baa60405160405180910390a250565b6130858160046132bb90919063ffffffff16565b8073ffffffffffffffffffffffffffffffffffffffff167fdb7176e79cffef81cb01767dd0447a0b24bb72ca9778d4b245581086b2a7e6db60405160405180910390a250565b600073ffffffffffffffffffffffffffffffffffffffff168173ffffffffffffffffffffffffffffffffffffffff161415613151576040517f08c379a00000000000000000000000000000000000000000000000000000000081526004018080602001828103825260228152602001806134e46022913960400191505060405180910390fd5b8073ffffffffffffffffffffffffffffffffffffffff166000809054906101000a900473ffffffffffffffffffffffffffffffffffffffff1673ffffffffffffffffffffffffffffffffffffffff167f5c486528ec3e3f0ea91181cff8116f02bfa350e03b8b6f12e00765adbb5af85c60405160405180910390a3806000806101000a81548173ffffffffffffffffffffffffffffffffffffffff021916908373ffffffffffffffffffffffffffffffffffffffff16021790555050565b600073ffffffffffffffffffffffffffffffffffffffff168173ffffffffffffffffffffffffffffffffffffffff16141561324957600080fd5b6132538282612dc3565b1561325d57600080fd5b60018260000160008373ffffffffffffffffffffffffffffffffffffffff1673ffffffffffffffffffffffffffffffffffffffff16815260200190815260200160002060006101000a81548160ff0219169083151502179055505050565b600073ffffffffffffffffffffffffffffffffffffffff168173ffffffffffffffffffffffffffffffffffffffff1614156132f557600080fd5b6132ff8282612dc3565b61330857600080fd5b60008260000160008373ffffffffffffffffffffffffffffffffffffffff1673ffffffffffffffffffffffffffffffffffffffff16815260200190815260200160002060006101000a81548160ff0219169083151502179055505050565b828054600181600116156101000203166002900490600052602060002090601f016020900481019282601f106133a757805160ff19168380011785556133d5565b828001600101855582156133d5579182015b828111156133d45782518255916020019190600101906133b9565b5b5090506133e291906133e6565b5090565b61340891905b808211156134045760008160009055506001016133ec565b5090565b9056fe596f7520646f206e6f74206861766520746865206469737472696275746f7220726f6c652e596f7520646f206e6f7420686176652074686520636f6e73756d657220726f6c652e4974656d206973206e6f7420696e20746865202750726f636573736564272053746174652e4974656d206973206e6f7420696e207468652027486172766573746564272053746174652e4974656d206973206e6f7420696e207468652027466f722053616c65272053746174652e4974656d206973206e6f7420696e20746865202753686970706564272053746174652e54686520616464726573732070726f7669646564206973206e6f742076616c69642e54686520616d6f756e742070616964206973206e6f742073756666696369656e7420746f20636f766572207468652070726963652e4974656d206973206e6f7420696e2074686520275265636569766564272053746174652e4f6e6c792074686520636f6e7472616374206f776e65722063616e2063616c6c20746869732066756e6374696f6e2e4974656d206973206e6f7420696e2074686520275061636b6564272053746174652ea265627a7a7231582008af0578df33c6e058bf2b492f81b92d11d26bc468ce12b9840475477396e91d64736f6c63430005100032",
  "source": "pragma solidity ^0.5.7;\n\nimport '../coffeecore/Ownable.sol';\nimport '../coffeeaccesscontrol/ConsumerRole.sol';\nimport '../coffeeaccesscontrol/DistributorRole.sol';\nimport '../coffeeaccesscontrol/FarmerRole.sol';\nimport '../coffeeaccesscontrol/RetailerRole.sol';\n\n\n// Define a contract 'Supplychain'\ncontract SupplyChain is Ownable, ConsumerRole, DistributorRole, FarmerRole, RetailerRole {\n\n  // Define 'owner'\n  address payable owner;\n\n  // Define a variable called 'upc' for Universal Product Code (UPC)\n  uint  upc;\n\n  // Define a variable called 'sku' for Stock Keeping Unit (SKU)\n  uint  sku;\n\n  // Define a public mapping 'items' that maps the UPC to an Item.\n  mapping (uint => Item) items;\n\n  // Define a public mapping 'itemsHistory' that maps the UPC to an array of TxHash,\n  // that tracks its journey through the supply chain -- to be sent from DApp.\n  mapping (uint => string[]) itemsHistory;\n\n  // Define enum 'State' with the following values:\n  enum State {\n    Harvested, // 0\n    Processed, // 1\n    Packed, // 2\n    ForSale, // 3\n    Sold, // 4\n    Shipped, // 5\n    Received, // 6\n    Purchased // 7\n  }\n\n  State constant defaultState = State.Harvested;\n\n  // Define a struct 'Item' with the following fields:\n  struct Item {\n    uint sku;  // Stock Keeping Unit (SKU)\n    uint upc; // Universal Product Code (UPC), generated by the Farmer, goes on the package, can be verified by the Consumer\n    address ownerID;  // Metamask-Ethereum address of the current owner as the product moves through 8 stages\n    address originFarmerID; // Metamask-Ethereum address of the Farmer\n    string originFarmName; // Farmer Name\n    string originFarmInformation;  // Farmer Information\n    string originFarmLatitude; // Farm Latitude\n    string originFarmLongitude;  // Farm Longitude\n    uint productID;  // Product ID potentially a combination of upc + sku\n    string productNotes; // Product Notes\n    uint productPrice; // Product Price\n    State itemState;  // Product State as represented in the enum above\n    address distributorID;  // Metamask-Ethereum address of the Distributor\n    address retailerID; // Metamask-Ethereum address of the Retailer\n    address payable consumerID; // Metamask-Ethereum address of the Consumer\n  }\n\n  // Define 8 events with the same 8 state values and accept 'upc' as input argument\n  event Harvested(uint upc);\n  event Processed(uint upc);\n  event Packed(uint upc);\n  event ForSale(uint upc);\n  event Sold(uint upc);\n  event Shipped(uint upc);\n  event Received(uint upc);\n  event Purchased(uint upc);\n\n  // Define a modifer that verifies the Caller\n  modifier verifyCaller (address _address) {\n    require(msg.sender == _address, \"Could not verify the caller.\");\n    _;\n  }\n\n  // Define a modifier that checks if the paid amount is sufficient to cover the price\n  modifier paidEnough(uint _price) {\n    require(msg.value >= _price, \"The amount paid is not sufficient to cover the price.\");\n    _;\n  }\n\n  // Define a modifier that checks the price and refunds the remaining balance\n  modifier checkValue(uint _upc) {\n    _;\n    uint _price = items[_upc].productPrice;\n    uint amountToReturn = msg.value - _price;\n    items[_upc].consumerID.transfer(amountToReturn);\n  }\n\n  // Define a modifier that checks if an item.state of a upc is Harvested\n  modifier harvested(uint _upc) {\n    require(items[_upc].itemState == State.Harvested, \"Item is not in the 'Harvested' State.\");\n    _;\n  }\n\n  // Define a modifier that checks if an item.state of a upc is Processed\n  modifier processed(uint _upc) {\n    require(items[_upc].itemState == State.Processed, \"Item is not in the 'Processed' State.\");\n    _;\n  }\n\n  // Define a modifier that checks if an item.state of a upc is Packed\n  modifier packed(uint _upc) {\n    require(items[_upc].itemState == State.Packed, \"Item is not in the 'Packed' State.\");\n    _;\n  }\n\n  // Define a modifier that checks if an item.state of a upc is ForSale\n  modifier forSale(uint _upc) {\n    require(items[_upc].itemState == State.ForSale, \"Item is not in the 'For Sale' State.\");\n    _;\n  }\n\n  // Define a modifier that checks if an item.state of a upc is Sold\n  modifier sold(uint _upc) {\n    require(items[_upc].itemState == State.Sold, \"Item is not in the 'Sold' State.\");\n    _;\n  }\n\n  // Define a modifier that checks if an item.state of a upc is Shipped\n  modifier shipped(uint _upc) {\n    require(items[_upc].itemState == State.Shipped, \"Item is not in the 'Shipped' State.\");\n    _;\n  }\n\n  // Define a modifier that checks if an item.state of a upc is Received\n  modifier received(uint _upc) {\n    require(items[_upc].itemState == State.Received, \"Item is not in the 'Received' State.\");\n    _;\n  }\n\n  // Define a modifier that checks if an item.state of a upc is Purchased\n  modifier purchased(uint _upc) {\n    require(items[_upc].itemState == State.Purchased, \"Item is not in the 'Purchased' State.\");\n    _;\n  }\n\n  // In the constructor set 'owner' to the address that instantiated the contract\n  // and set 'sku' to 1\n  // and set 'upc' to 1\n  constructor() public payable {\n    owner = msg.sender;\n    sku = 1;\n    upc = 1;\n  }\n\n  // Define a function 'kill' if required\n  function kill() public {\n    if (msg.sender == owner) {\n      selfdestruct(owner);\n    }\n  }\n\n  // Define a function 'harvestItem' that allows a farmer to mark an item 'Harvested'\n  function harvestItem (\n    uint _upc,\n    address _originFarmerID,\n    string memory _originFarmName,\n    string memory _originFarmInformation,\n    string memory _originFarmLatitude,\n    string memory _originFarmLongitude,\n    string memory _productNotes)\n    public\n    onlyFarmer\n  {\n      // Add the new item as part of Harvest\n      items[_upc].sku = sku;\n      items[_upc].upc = upc;\n      items[_upc].ownerID = _originFarmerID;\n      items[_upc].originFarmerID = _originFarmerID;\n      items[_upc].originFarmName = _originFarmName;\n      items[_upc].originFarmInformation = _originFarmInformation;\n      items[_upc].originFarmLatitude = _originFarmLatitude;\n      items[_upc].originFarmLongitude = _originFarmLongitude;\n      items[_upc].productID = _upc + sku;\n      items[_upc].productNotes = _productNotes;\n      items[_upc].itemState = State.Harvested;\n      // Increment sku\n      sku = sku + 1;\n      // Emit the appropriate event\n      emit Harvested(_upc);\n  }\n\n  // Define a function 'processtItem' that allows a farmer to mark an item 'Processed'\n  function processItem(uint _upc) public\n    // Call modifier to check if upc has passed previous supply chain stage\n    harvested(_upc)\n    // Call modifier to verify caller of this function\n    verifyCaller(items[_upc].ownerID)\n    onlyFarmer\n  {\n    // Update the appropriate fields\n    items[_upc].itemState = State.Processed;\n    // Emit the appropriate event\n    emit Processed(_upc);\n  }\n\n  // Define a function 'packItem' that allows a farmer to mark an item 'Packed'\n  function packItem(uint _upc) public\n    // Call modifier to check if upc has passed previous supply chain stage\n    processed(_upc)\n    // Call modifier to verify caller of this function\n    verifyCaller(items[_upc].ownerID)\n    onlyFarmer\n  {\n    // Update the appropriate fields\n    items[_upc].itemState = State.Packed;\n    // Emit the appropriate event\n    emit Packed(_upc);\n  }\n\n  // Define a function 'sellItem' that allows a farmer to mark an item 'ForSale'\n  function sellItem(uint _upc, uint _price) public\n    // Call modifier to check if upc has passed previous supply chain stage\n    packed(_upc)\n    // Call modifier to verify caller of this function\n    verifyCaller(items[_upc].ownerID)\n    onlyFarmer\n  {\n    // Update the appropriate fields\n    items[_upc].productPrice = _price;\n    items[_upc].itemState = State.ForSale;\n    // Emit the appropriate event\n    emit ForSale(_upc);\n  }\n\n  // Define a function 'buyItem' that allows the disributor to mark an item 'Sold'\n  // Use the above defined modifiers to check if the item is available for sale, if the buyer has paid enough,\n  // and any excess ether sent is refunded back to the buyer\n  function buyItem(uint _upc) public payable\n    // Call modifier to check if upc has passed previous supply chain stage\n    forSale(_upc)\n    // Call modifer to check if buyer has paid enough\n    paidEnough(items[_upc].productPrice)\n    // Call modifer to send any excess ether back to buyer\n    checkValue(_upc)\n    onlyDistributor\n  {\n    // Update the appropriate fields - ownerID, distributorID, itemState\n    items[_upc].ownerID = msg.sender;\n    items[_upc].distributorID = msg.sender;\n    items[_upc].itemState = State.Sold;\n    // Transfer money to farmer\n    msg.sender.transfer(items[_upc].productPrice);\n    // emit the appropriate event\n    emit Sold(_upc);\n  }\n\n  // Define a function 'shipItem' that allows the distributor to mark an item 'Shipped'\n  // Use the above modifers to check if the item is sold\n  function shipItem(uint _upc) public\n    // Call modifier to check if upc has passed previous supply chain stage\n    sold(_upc)\n    // Call modifier to verify caller of this function\n    verifyCaller(items[_upc].ownerID)\n    onlyDistributor\n  {\n    // Update the appropriate fields\n    items[_upc].itemState = State.Shipped;\n    // Emit the appropriate event\n    emit Shipped(_upc);\n  }\n\n  // Define a function 'receiveItem' that allows the retailer to mark an item 'Received'\n  // Use the above modifiers to check if the item is shipped\n  function receiveItem(uint _upc) public\n    // Call modifier to check if upc has passed previous supply chain stage\n    shipped(_upc)\n    // Access Control List enforced by calling Smart Contract / DApp\n    onlyRetailer\n  {\n    // Update the appropriate fields - ownerID, retailerID, itemState\n    items[_upc].ownerID = msg.sender;\n    items[_upc].retailerID = msg.sender;\n    items[_upc].itemState = State.Received;\n    // Emit the appropriate event\n    emit Received(_upc);\n  }\n\n  // Define a function 'purchaseItem' that allows the consumer to mark an item 'Purchased'\n  // Use the above modifiers to check if the item is received\n  function purchaseItem(uint _upc) public\n    // Call modifier to check if upc has passed previous supply chain stage\n    received(_upc)\n    // Access Control List enforced by calling Smart Contract / DApp\n    onlyConsumer\n    {\n    // Update the appropriate fields - ownerID, consumerID, itemState\n    items[_upc].ownerID = msg.sender;\n    items[_upc].consumerID = msg.sender;\n    items[_upc].itemState = State.Purchased;\n    // Emit the appropriate event\n    emit Purchased(_upc);\n  }\n\n  // Define a function 'fetchItemBufferOne' that fetches the data\n  function fetchItemBufferOne(uint _upc) public view returns (\n    uint itemSKU,\n    uint itemUPC,\n    address ownerID,\n    address originFarmerID,\n    string memory originFarmName,\n    string memory originFarmInformation,\n    string memory originFarmLatitude,\n    string memory originFarmLongitude\n  )\n  {\n  // Assign values to the 8 parameters\n    itemSKU = items[_upc].sku;\n    itemUPC = items[_upc].upc;\n    ownerID = items[_upc].ownerID;\n    originFarmerID = items[_upc].originFarmerID;\n    originFarmName = items[_upc].originFarmName;\n    originFarmInformation = items[_upc].originFarmInformation;\n    originFarmLatitude = items[_upc].originFarmLatitude;\n    originFarmLongitude = items[_upc].originFarmLongitude;\n  }\n\n  // Define a function 'fetchItemBufferTwo' that fetches the data\n  function fetchItemBufferTwo(uint _upc) public view returns (\n    uint itemSKU,\n    uint itemUPC,\n    uint productID,\n    string memory productNotes,\n    uint productPrice,\n    uint itemState,\n    address distributorID,\n    address retailerID,\n    address consumerID\n  )\n  {\n    // Assign values to the 9 parameters\n    itemSKU = items[_upc].sku;\n    itemUPC = items[_upc].upc;\n    productID = items[_upc].productID;\n    productNotes = items[_upc].productNotes;\n    productPrice = items[_upc].productPrice;\n    itemState = uint(items[_upc].itemState);\n    distributorID = items[_upc].distributorID;\n    retailerID = items[_upc].retailerID;\n    consumerID = items[_upc].consumerID;\n  }\n}",
  "sourcePath": "/home/artur/Documents/nd1309-Project-6b-Example-Template/project-6/contracts/coffeebase/SupplyChain.sol",
  "compiler": {
    "name": "solc",
    "version": "0.5.16+commit.9c3226ce.Emscripten.clang"
  },
  "schemaVersion": "3.2.5",
  "updatedAt": "2020-10-13T17:55:03.333Z",
  "networkType": "ethereum",
  "devdoc": {
    "methods": {}
  },
  "userdoc": {
    "methods": {
      "_owner()": {
        "notice": "Look up the address of the owner"
      },
      "isOwner()": {
        "notice": "Check if the calling address is the owner of the contract"
      },
      "renounceOwnership()": {
        "notice": "Define a function to renounce ownerhip"
      },
      "transferOwnership(address)": {
        "notice": "Define a public function to transfer ownership"
      }
    }
  }
}